:100000000C9424060C946B060C946B060C946B06F3
:100010000C946B060C946B060C946B060C946B069C
:100020000C946B060C946B060C947B280C944F2953
:100030000C94851A0C946B060C946B060C946B064E
:100040000C946B060C946B060C946B060C946B066C
:100050000C946B060C94DC1A0C946B060C946B06D7
:100060000C946B060C946B060C946B060C946B064C
:100070000C946B060C946B060C946B060C946B063C
:100080000C946B060C946B060C946B060C946B062C
:100090000C946B060C946B060C946B060C946B061C
:1000A0000C946B060C946B060C946B06687474705D
:1000B000733A2F2F716D6B2E666D2F0A00514D4BC9
:1000C00020697320746865206265737420746869A0
:1000D0006E67206576657221001E001F00200021DA
:1000E00000220023002400250026004445425547F5
:1000F0003A2064697361626C65642E0A004445426B
:1001000055473A20656E61626C65642E0A000000F6
:100110000000000000002A2B280000000000000062
:1001200000000000000000000029000000002C1E5C
:100130003420212224342627252E362D3738271E19
:100140001F202122232425263333362E37381F043F
:1001500005060708090A0B0C0D0E0F1011121314D7
:1001600015161718191A1B1C1D2F3130232D350495
:1001700005060708090A0B0C0D0E0F1011121314B7
:1001800015161718191A1B1C1D2F3130354C00007D
:10019000000000000000000000000000000000005F
:1001A00000007E0F00D4FFFFFFC7000000780A00A8
:1001B00025303862003A200025303258000A722F6C
:1001C000632030313233343536370A000A002530A7
:1001D000325820006B6579626F6172645F7265707E
:1001E0006F72743A20000A0025303258006B65792E
:1001F000626F6172645F7365745F6C65643A20005E
:10020000290A002575002F002575005D280025644A
:1002100000200025640020002564002000256400E3
:100220007C0025303258006D6F7573656B657920E1
:100230005B62746E7C782079207620685D28726518
:10024000702F61636C293A205B006D6B5F77686586
:10025000656C5F74696D655F746F5F6D6178203D7B
:100260002025640A006D6B5F776865656C5F6D6162
:10027000785F7370656564203D2025640A006D6BAE
:100280005F74696D655F746F5F6D6178203D2025D7
:10029000640A006D6B5F6D61785F737065656420E3
:1002A0003D2025640A006D6B5F696E74657276612E
:1002B0006C203D2025640A006D6B5F64656C61797C
:1002C000203D2025640A006D6B5F776865656C5F73
:1002D00074696D655F746F5F6D6178203D20256482
:1002E0000A006D6B5F776865656C5F6D61785F7341
:1002F00070656564203D2025640A006D6B5F74693C
:100300006D655F746F5F6D6178203D2025640A0024
:100310006D6B5F6D61785F7370656564203D20254E
:10032000640A006D6B5F696E74657276616C203D66
:100330002025640A006D6B5F64656C6179203D2047
:1003400025640A000A00257500363A20776865653D
:100350006C5F74696D655F746F5F6D61783A2000E2
:100360000A00257500353A20776865656C5F6D6118
:10037000785F73706565643A20000A002575003463
:100380003A2074696D655F746F5F6D61783A200023
:100390000A00257500333A206D61785F73706565DA
:1003A000643A20000A00257500323A20696E7465AF
:1003B0007276616C286D73293A20000A0025750059
:1003C000313A2064656C6179282A31306D73293A9D
:1003D00020000A092D2056616C756573202D0A00D6
:1003E0004D3E004D25643E20003F0073657420643F
:1003F000656661756C740A00433E2000776865721B
:10040000652064656C74613A20637572736F723D28
:1004100025642C20776865656C3D25640A53656505
:1004200020687474703A2F2F656E2E77696B69702F
:10043000656469612E6F72672F77696B692F4D6FE5
:100440007573655F6B6579730A000A092D204D6F1E
:100450007573656B6579202D0A4553432F713A09F1
:10046000717569740A313A0964656C6179282A31B9
:10047000306D73290A323A09696E74657276616C5F
:10048000286D73290A333A096D61785F7370656569
:10049000640A343A0974696D655F746F5F6D6178E1
:1004A0000A353A09776865656C5F6D61785F7370CE
:1004B0006565640A363A09776865656C5F74696DCD
:1004C000655F746F5F6D61780A0A703A09707269CE
:1004D0006E742076616C7565730A643A097365748D
:1004E0002064656661756C74730A75703A092B3106
:1004F0000A646F776E3A092D310A706775703A0990
:100500002B31300A7067646F776E3A092D31300AEB
:100510000A7370656564203D2064656C7461202AEF
:10052000206D61785F7370656564202A202872658C
:1005300070656174202F2074696D655F746F5F6DE5
:100540006178290A003F004D3E2000433E20004CC8
:1005500025640A0074696D65725F72656164333287
:1005600028293A202530346C580A006B6579626F6F
:100570006172645F69646C653A2025580A006B6596
:1005800079626F6172645F70726F746F636F6C3ADF
:100590002025580A00686F73745F6B6579626F611C
:1005A00072645F6C65647328293A2025580A000A32
:1005B000092D20537461747573202D0A004743433D
:1005C0003A20382E332E30204156522D4C4942438A
:1005D0003A20322E302E30204156525F415243484D
:1005E0003A20617672350A004F5054494F4E533AC3
:1005F000204C554641204D4F5553454B45592045BC
:10060000585452414B455920434F4E534F4C45206F
:10061000434F4D4D414E4420343039360A00425547
:10062000494C443A2022302E392E333622202831AC
:10063000373A32383A353620417567203331203227
:10064000303230290A005649443A20307846454530
:100650004428666C656872616429205049443A20D8
:100660003078303030302844524D50292056455291
:100670003A203078303030310A00444553433A2034
:10068000466C69707061626C6520337833206D61EF
:1006900063726F70616420776974682073696E6734
:1006A0006C6520726F7461727920656E636F64652A
:1006B000720A000A092D2056657273696F6E202D2B
:1006C0000A000A092D20436F6E736F6C65202D0A96
:1006D0004553432F713A09717569740A6D3A096D72
:1006E0006F7573656B65790A000A092D204D616786
:1006F0006963202D0A443A094465627567204D6597
:10070000737361676520546F67676C650A583A09AF
:100710004D6174726978204465627567204D6F641D
:100720006520546F67676C65202D2053686F7720B4
:100730006B65797072657373657320696E206D6186
:100740007472697820677269640A4B3A094B65795B
:10075000626F61726420446562756720546F6767D9
:100760006C65202D2053686F77206B6579707265FA
:100770007373207265706F72740A4D3A0944656232
:100780007567204D6F75736520546F67676C650AD8
:10079000563A0956657273696F6E0A533A09537473
:1007A000617475730A433A094163746976617465CB
:1007B00020436F6E736F6C65204D6F64650A463120
:1007C0002D4631303A0953776974636820746F207D
:1007D0004C6179657220302D392028463130203D1A
:1007E000204C30290A302D393A09537769746368EF
:1007F00020746F204C6179657220302D390A475280
:100800004156453A0953776974636820746F204CE8
:100810006179657220302028616C7465726E617434
:1008200065290A423A094A756D7020746F20426F3B
:100830006F746C6F616465720A4553433A094A7577
:100840006D7020746F20426F6F746C6F616465729D
:100850002028616C7465726E617465290A453A09D5
:100860005072696E7420454550524F4D2053657447
:1008700074696E67730A4253504143453A09436CA9
:1008800065617220454550524F4D0A000A0025759A
:10089000002E6E6B726F3A20000A002575002E73D1
:1008A0007761705F6261636B736C6173685F6261D3
:1008B000636B73706163653A20000A002575002E32
:1008C000737761705F67726176655F6573633A2005
:1008D000000A002575002E6E6F5F6775693A20006B
:1008E0000A002575002E737761705F72616C745F0A
:1008F000726775693A20000A002575002E737761CA
:10090000705F6C616C745F6C6775693A20000A00F7
:100910002575002E737761705F7263746C5F726708
:1009200075693A20000A002575002E737761705FA3
:100930006C63746C5F6C6775693A20000A002575FA
:10094000002E636170736C6F636B5F746F5F636FB6
:100950006E74726F6C3A20000A002575002E737752
:1009600061705F636F6E74726F6C5F636170736CE4
:100970006F636B3A20000A0025303258006B6579AE
:100980006D61705F636F6E6669672E7261773A2082
:10099000000A002575002E6D6F7573653A20000AF8
:1009A000002575002E6B6579626F6172643A2000D4
:1009B0000A002575002E6D61747269783A20000A6C
:1009C000002575002E656E61626C653A20000A0094
:1009D000253032580064656275675F636F6E6669C3
:1009E000672E7261773A20000A00257500646566FB
:1009F00061756C745F6C617965723A20003F000A22
:100A00006D6F7573653A206F66660A000A6D6F75C3
:100A100073653A206F6E0A000A6B6579626F6172C6
:100A2000643A206F66660A000A6B6579626F6172CC
:100A3000643A206F6E0A000A6D61747269783A2018
:100A40006F66660A000A6D61747269783A206F6E8B
:100A50000A000A64656275673A206F66660A000AD2
:100A600064656275673A206F6E0A000A0A4A756DFE
:100A700070696E6720746F20626F6F746C6F616451
:100A800065722E2E2E2000433E2000436C6561725D
:100A9000696E6720454550524F4D0A006565636F8A
:100AA0006E6669673A0A005B735D004B6579626F39
:100AB0006172642073746172742E0A005B575D006A
:100AC0005B535D005B525D005B445D005B435D001A
:100AD0000403300000000A03440052004D0050009F
:100AE0000000100366006C00650068007200610081
:100AF000640000000403090409025B00030100A074
:100B0000FA0904000001030101000921110100019B
:100B10002240000705810308000A090401000103BF
:100B20000000000921110100012281000705820354
:100B300020000A090402000203000000092111013B
:100B4000000122220007058303200001070503039B
:100B50002000011201100100000008EDFE0000015C
:100B600000010203010631FF0974A1010975150096
:100B700026FF009520750881020976150026FF00E2
:100B8000952075089102C005010902A1018502099D
:100B900001A1000509190129051500250195057513
:100BA00001810295017503810105010930093115A3
:100BB00081257F95027508810609381581257F9565
:100BC0000175088106050C0A38021581257F9501FB
:100BD00075088106C0C005010980A10185031901BE
:100BE0002AB700150126B700950175108100C005D0
:100BF0000C0901A101850419012AA002150126A0F2
:100C000002950175108100C005010906A1010507C3
:100C100019E029E715002501950875018102950164
:100C2000750881010507190029FF150026FF0095A9
:100C300006750881000508190129059505750191BA
:100C400002950175039101C011241FBECFEFDAE0B8
:100C5000DEBFCDBF04B603FE27C080914D02909148
:100C60004E02A0914F02B09150028730904BA740A6
:100C7000B04BD1F410924D0210924E0210924F02DE
:100C80001092500214BE84B7877F84BF0FB6F894C9
:100C9000A895809160008861809360001092600048
:100CA0000FBEE0E0F8E3099511E0A0E0B1E0E4E474
:100CB000F7E502C005900D92A63AB107D9F722E0F8
:100CC000A6EAB1E001C01D92AD34B207E1F70E947F
:100CD000A1250C947C2B0C940000FF93EF93E091E2
:100CE000A601F091A701309709F00995EF91FF91C6
:100CF0000895FC018591803011F0EFDFFBCF08955E
:100D0000FF27E0E230E247FF0CC0419597FF09C0A2
:100D1000EDE26095709580959095611D711D811D26
:100D2000911D27FF02C0219530E350E2AA27660FEC
:100D3000771F881F991FAA1FA41710F0A41B639583
:100D40005A95A9F7AA3008F0A95FA05DAF93F39573
:100D5000611571058105910541F7ED3211F4EF93AD
:100D6000F395F21718F43F93F395FBCF8F91B5DF0E
:100D7000FA95E1F70895E991F9918591803021F094
:100D8000853219F0AADFF9CF089520E0E894559153
:100D90005532C1F3503311F4689455915A3348F4E5
:100DA000505390F3220F022E220F220F200D250FF9
:100DB000F4CF0EF4219589919991533619F3533755
:100DC00029F1533559F1BC0188279927E8945C36FD
:100DD00021F48991999168945591543639F446EFEC
:100DE0007EF077FF0DC08FEF9FEF0AC055374AE0C6
:100DF00039F0583540E121F0523642E009F00895CB
:100E0000FF93EF937DDFEF91FF91B7CFFF93EF93C8
:100E1000FC0181918030B9F360DFFBCFFF93EF934A
:100E200068DFF1CFDF93CF93CDB7DEB72596A3DF91
:100E3000CF91DF91089588302DE5920729F0893010
:100E40009D4559F081E00895FB0182818823D1F30B
:100E50008DEB90E00E944808F5CFFB01828188234A
:100E600089F38CEA90E0F6CF811106C085E161112B
:100E700001C08FE00C94F110813029F481E56111FB
:100E8000F9CF82E5F7CF089581E008950C941B0710
:100E900008950C9448071F93CF93DF9300D000D0A0
:100EA0000F92CDB7DEB749835A836B833091BC0173
:100EB00089819A8131111DC06623B9F02223A9F0DE
:100EC0000E94E617182F682F89819A810E94911736
:100ED00069817A81812F0F900F900F900F900F9062
:100EE000DF91CF911F910C94C6080E94BE17182F56
:100EF000EFCF0E94E61769817A81EDCFFC01262FA2
:100F0000408151816281738184810C944B07CF931E
:100F1000DF93EC0160E00E947E07BE01DF91CF917C
:100F20000C944907FF920F931F93CF93DF93E82F01
:100F3000F0E0E25FFE4FF490C82FC695C695C695C7
:100F4000D0E0FE01E256FE4F0491877010E0082EBB
:100F500002C0159507950A94E2F701701127C25750
:100F6000DE4FFE01C491D0E002C0D595C7958A95A9
:100F7000E2F7C170DD270115110519F081EE0E941D
:100F80000410209719F086EE0E9404108F2D0E9405
:100F9000F110CD2B19F086EE0E949B10012B41F031
:100FA00081EEDF91CF911F910F91FF900C949B10D8
:100FB000DF91CF911F910F91FF900895EF92FF92D3
:100FC0000F931F93CF93DF938C01F62E8AE0E82EC8
:100FD000F8018491882309F454C0813009F04DC090
:100FE000E8012196FE018491813091F42196FE0161
:100FF00084910E94F1108E010F5F1F4F8F2D815041
:1010000038F3EFE9FFE03197F1F700C00000F7CFC8
:10101000823039F4E8012296FE0184910E94041086
:10102000EACF833039F4E8012296FE0184910E94D0
:101030009B10E1CF8430F9F6E8012296FE0124915D
:1010400090E080E0FE0131962053330B2A303105C9
:1010500048F0019780F2EFE9FFE03197F1F700C027
:101060000000F7CFE89EA001E99E500D1124C901B0
:10107000840F951F2491EF01E5CF0E949207E801AC
:10108000BACFDF91CF911F910F91FF90EF9008950C
:1010900060E00C94DE070E943A19811102C00E94A0
:1010A000D7190C94AF0A0C94B20A08950C94550801
:1010B00081E008950C945808CF93C82F0E945608D9
:1010C0008C2FCF910C945A0808950E9473130E949C
:1010D00064082FEF84E39CE0215080409040E1F7CA
:1010E00000C000000C94001B0F931F93CF93DF935D
:1010F000EC0161E00E947E078C01BE010E94460760
:10110000882311F1BE01C8010E94CA0C8823E1F0B6
:10111000BE01C8010E940B0D8823B1F0BE01C801B9
:101120000E942E0E882381F08A81882341F10130AC
:101130008CE5180779F00E3D8CE51807E9F00115EC
:101140001C45E9F40E94650880E0DF91CF911F9172
:101150000F91089590911402892F8E7F90FF8160E6
:101160008093140280FF05C08DEF90E00E94790605
:10117000EBCF8BEE90E0FACF0E94D719E5CFCE01EE
:10118000DF91CF911F910F910C944407972F70E03E
:1011900023E0929F600D711D1124FB0199E0899F4E
:1011A000E00DF11D1124EE0FFF1FE752FF4F859157
:1011B00094910895CF93DF930E94C6080E94D409AA
:1011C000EC01811521E5920708F042C0811530E558
:1011D000930708F09DC0883E910530F5803E91054B
:1011E00008F092C0883A910588F4853A910508F094
:1011F00084C08130910509F487C0009709F484C048
:10120000049708F081C0D0E0C0E07EC08F3B91051C
:10121000D0F7C85AD0E0CC0FDD1FCB5EDE4F09906F
:10122000D881C02DD46470C08115904250F4C1158E
:1012300081E0D80708F068C0C03FD10520F3D06531
:1012400063C0C11590E4D907F0F2DF70D06A5CC0CA
:10125000811525E5920700F5811534E5930708F01F
:101260008BC0811543E5940708F073C0C11582E572
:10127000D80708F469C0CE018370992721E030E0D7
:1012800002C0220F331F8A95E2F7C695C69580E209
:10129000C89FE001112454C0C11599E5D907A8F4ED
:1012A000C11528E5D20708F06CC0C11536E5D30793
:1012B00008F0A9CF8C2F0E946B0AC82FD0E0DC2F3A
:1012C000CC27CC27DF71D0621FC0C1154AE5D407F7
:1012D00008F45CC0CE0190568115904208F093CF7F
:1012E0008D2F8F710E946B0A90E0982F8827882796
:1012F0009F719C012C2BE901E6CFC55AD0E0CD5B54
:10130000DE4FC881D0E0D064CE01DF91CF91089547
:10131000E4E096958795EA95E1F783702C2F269562
:101320002695237040E2249F90011124382B8C2FA6
:101330008370C1E0D0E002C0CC0FDD1F8A95E2F7D8
:10134000C22BD32BDC68E0CFDC2FCC27C16FD06A57
:10135000DBCF8370992721E030E002C0220F331FDA
:101360008A95E2F7C695C69590E2C99FE0011124DF
:10137000C22BD32BDA68C8CFD82FCC27C46FD06A42
:10138000C3CFDC2FCC27C06FD06ABECF8C2F8F701D
:101390000E946B0A34E0D695C7953A95E1F7CF7075
:1013A0009C2FEC01D069B0CF82389105B1F1B0F437
:1013B0008133910509F475C048F48932910509F427
:1013C00069C08A32910509F473C008958533910587
:1013D00009F459C08933910501F10895833E9105BF
:1013E000A9F138F4803E9105F9F0823E910549F16A
:1013F0000895863E9105A9F1873E9105C9F1843E85
:10140000910519F520913F0221FF1FC080913E02F6
:1014100084FD14C087EE90E0089520913E02237071
:10142000A1F080EE90E0089520913E0220FD47C09B
:1014300030913F0230FF09C024FF44C090E080E0BB
:1014400004C020913E0222FDF7CF089520913E0274
:1014500022FD3BC030913F0230FDE3CF24FFF5CFAA
:10146000EDCF20913E0223FFF0CF24FDE7CFD2CF76
:1014700020913E0223FD2CC030913F0231FFEECF80
:1014800084EE90E0089520913E0225FFDECF89E2B0
:1014900090E0089520913E0225FFD7CF85E390E0AC
:1014A000089520913E0226FFD0CF8AE290E0089571
:1014B00020913E0226FFC9CF81E390E0089589E3A1
:1014C00090E0089583EE90E0089582EE90E0089514
:1014D00086EE90E0089590913E0292FF06C0282F7C
:1014E00028712830F9F4877F846093FF06C0282F85
:1014F00028712831F1F4877E846120913F0220FF1A
:1015000006C0382F38713830D9F4877F816021FFC9
:1015100006C0282F28712831D1F4877E816194FD7F
:10152000877E0895282F24712430F9F68B7F8860F8
:10153000DCCF282F2471243101F78B7E8861DDCF29
:10154000382F3171313019F78E7F8860E0CF282F26
:101550002171213121F78E7E8861E1CF08950C94AD
:10156000AE0A08950C94B10AE82FF0E0E95CFD4F53
:1015700080810895CF92DF92EF92FF920F931F9395
:10158000CF93DF938DEB91E00E94790687E3E82EFD
:1015900082E0F82ED0E0C0E098EBC92E91E0D92E81
:1015A00000EB11E0DF93CF93DF92CF920E941207FE
:1015B00085EB91E00E947906F70181917F010E94FD
:1015C00022191F928F931F930F930E9412078EEA86
:1015D00091E00E94790621968DB79EB708960FB6C6
:1015E000F8949EBF0FBE8DBFC330D105D9F6DF91F1
:1015F000CF911F910F91FF90EF90DF90CF900895C2
:1016000080EA8A95F1F70895CF93DF93A9E4B1E0DA
:101610004CE451E0C1E0D0E08D91E82FE295EF700D
:10162000F0E061A18F709E0101C0220F8A95EAF758
:10163000922F9095962391A382A1822B82A34A1781
:101640005B0751F7A6E4B1E049E451E0C1E0D0E026
:101650008D91E82FE295EF70F0E061A18F709E010F
:1016600001C0220F8A95EAF7922F9095962391A3B5
:1016700082A1822B82A34A175B0751F71092340292
:1016800010923702109235021092380210923602F0
:101690001092390283E00E94D10BDF91CF910C941C
:1016A0004B088F929F92AF92BF92CF92DF92EF92B0
:1016B000FF920F931F93CF93DF9389E4A82E81E0CD
:1016C000B82E04E312E0912CCC24C394D12CF50164
:1016D00081915F01C82FC295CF70D0E099A18F7022
:1016E000760101C0EE0C8A95EAF7892F8E2989A32D
:1016F0008AA18E2C809488218AA30E94000BE6E4A4
:10170000F1E050E040E020E03191A32FA295AF70CE
:10171000B0E090968C9190E03F7002C095958795CF
:101720003A95E2F780FD39C08C2D042E01C0880F58
:101730000A94EAF7282B4F5F5F4F4330510521F79A
:1017400089A1882289A28AA1E82AEAA2F8018081D7
:10175000281729F1208381E0982A0F5F1F4FFCE4AE
:10176000AF16F1E0BF0609F0B2CF292D43E067E3E1
:1017700072E084E392E00E94D20B0E945308892D0C
:10178000DF91CF911F910F91FF90EF90DF90CF905D
:10179000BF90AF909F908F90089580E0CBCF80E076
:1017A000DBCF0895FF920F931F93CF93DF93F82E13
:1017B000092F162FD72FC42F222349F081E08093C1
:1017C000AA010E94B51A9093A9018093A801809163
:1017D000AA018823A1F08091A8019091A9010E94FB
:1017E000CD1A069760F0EF2DF02FA12FBD2FCE0F51
:1017F000DF2FD11DEC17FD0741F41092AA01DF91F4
:10180000CF911F910F91FF90089581918D93F2CF09
:101810000C9434075198599A52985A9A89B18695DE
:1018200081704A9905C090E0892B8093AD0108959D
:1018300092E0FACFE091AD01EE0FEE0FE093AD0133
:1018400049B141FB882780F949B142FB222720F9A1
:1018500042FF02C022E030E0822BE82BE093AD0192
:10186000EF70F0E0E45BFE4F80819091AC01890F56
:101870008093AC0184304CF08091AB018F5F8093FA
:10188000AB0161E080E00E94080C8091AC018D3FCB
:101890004CF48091AB0181508093AB0160E080E01B
:1018A0000E94080C8091AC01837887FF03C08150AF
:1018B0008C6F8F5F8093AC0108950F931F93CF932C
:1018C000DF93C62FD42F022FFC0182818823C9F019
:1018D0006093B0010E94B51A9093AF018093AE015E
:1018E00080E28C0F883008F050C0C77081E001C0E2
:1018F000880FCA95EAF7DF91CF911F910F910C9451
:1019000004111091B001161335C08091AE01909171
:10191000AF010E94CD1A883C910560F5C0E2CD0F61
:101920001D17B9F080E2810F883040F4177081E014
:1019300001C0880F1A95EAF70E940B11C83048F4CD
:1019400081E09D2F977001C0880F9A95EAF70E9459
:101950000411802F0E94F110C830B8F4D77081E0D4
:1019600001C0880FDA95EAF7DF91CF911F910F91AF
:101970000C940B1180E28C0F883038F4C77081E032
:1019800001C0880FCA95EAF7EFCFDF91CF911F9181
:101990000F9108959C01CB01233F4CE5340731F1B1
:1019A00090F4283DFCE53F07E9F0293D4CE534077C
:1019B00069F1273D3C4579F426E241EE61EE0E9453
:1019C0005D0C80E00895253FFCE53F07B9F090F0FD
:1019D000263F3C45B9F0FC0182818823D1F010926A
:1019E000B001089527E245EE65EEE9CF26E241EE2B
:1019F00060EEE5CF27E245EE64EEE1CF26E241EE70
:101A000062EEDDCF27E245EE66EED9CF28E241E077
:101A1000EBCF81E00895CF93DF93EC01FB0182814E
:101A2000882309F419C1C230FCE5DF07C0F1C631D3
:101A30009CE5D90730F09E012A5F3C4529303105ED
:101A400070F50E944D1990933F0280933E02C03181
:101A5000ECE5DE0709F4CFC008F05BC0C8308CE5C8
:101A6000D80709F4B6C088F5C430ECE5DE0709F400
:101A7000A8C0C0F4C2308CE5D80709F49CC080919E
:101A80003E028260C330DC4509F498C080913E027A
:101A900090913F020E945B190E94731380E0DF91D6
:101AA000CF91089580913E028061C630ECE5DE075B
:101AB00009F484C080913E028860C730DC4508F498
:101AC0007DC080913E02806279C0CC308CE5D80721
:101AD00009F489C070F480913E028C60CA30ECE554
:101AE000DE0709F46BC008F478C080913E028E7F57
:101AF00065C0CE308CE5D80709F479C080913E02EC
:101B00008B7FCF30DC4508F459C080913E028F7E38
:101B100055C0CB3FECE5DE0709F457C030F5C331C3
:101B20008CE5D80709F46FC078F4C131ECE5DE0725
:101B300009F465C0C231DC4509F0A8CF0E947313D7
:101B400080913E028F773AC0C5318CE5D80709F401
:101B500062C008F476C080913F028160CA3FDC45D4
:101B600009F094CF80933F0291CFCF3FFCE5DF0790
:101B700009F44DC088F480913F028D7FCD3F9CE5F4
:101B8000D90781F380913F028E7FCE3FDC4550F331
:101B900080913F028360E6CFC130FDE5DF0709F4A5
:101BA00059C008F444C080E0C230DD4509F06ECF72
:101BB0000E94D9196BCF80913E02816080933E02D2
:101BC00065CF80913E028460F9CF80913F028260B0
:101BD000C9CF80913E028064F1CF0E94731380913F
:101BE0003E028068EBCF80913E028D7FE7CF8091EF
:101BF0003E02877FE3CF80913E028F7DDFCF8091D1
:101C00003E028F7BDBCF80913E02837FD7CF8091D6
:101C10003F028C7FA7CF80913E0282FB992790F9EB
:101C200021E0922790FB82F990FB83F9C7CF809146
:101C30003F02982F909591708E7F892B90FB81F9B0
:101C400091CF0E94731390913E02892F97FB87F9E1
:101C50008058B4CF81E0ACCF81E021CFCF93DF9328
:101C6000EB0186319C4511F50E947B189A819923DE
:101C700099F08A7A91E009F490E09093B101811192
:101C800009C089E20E9456180E94BA1880E0DF91CC
:101C9000CF91089585E3F6CF8091B101811104C001
:101CA00089E20E945D18F0CF85E3FBCF81E0EFCFA2
:101CB0009093B7018093B6010895E091B601F09139
:101CC000B701309721F00190F081E02D099480E078
:101CD0000895EF92FF920F931F93CF93DF938C01A0
:101CE000E091B601F091B7013097C1F10280F38124
:101CF000E02D09958091140282FF30C080FF04C05E
:101D000084ED91E00E947906D0E0C0E08EECE82EF0
:101D100081E0F82E8091140280FF0EC0F801EC0FD4
:101D2000FD1F80811F928F93FF92EF920E941207F6
:101D30000F900F900F900F902196C830D10551F75A
:101D40008091140280FF0AC08CEC91E0DF91CF916A
:101D50001F910F91FF90EF900C947906DF91CF9136
:101D60001F910F91FF90EF900895E091B601F091CF
:101D7000B701309739F022E0DC012C930480F58123
:101D8000E02D099408952091B4013091B5012817F0
:101D9000390771F09093B5018093B401E091B601D9
:101DA000F091B701309721F00680F781E02D09947A
:101DB00008952091B2013091B3012817390771F0CD
:101DC0009093B3018093B201E091B601F091B70115
:101DD000309721F00084F185E02D0994089585B7AE
:101DE000806885BF85B7806885BF08950895089588
:101DF0000C94F60E08950C94FA0E0E94EF0E0E94B9
:101E0000F70E0C94F80E81E008950C94030F0E94D5
:101E1000AC1A0E94040B0E94241B0E940A0C0C9412
:101E2000FB0ECF93C82F8091140282FF1EC080FF4B
:101E30001CC08DEE91E00E9479068091140280FF13
:101E400014C01F92CF9388EE91E09F938F930E94CE
:101E50001207809114020F900F900F900F9080FF47
:101E600004C086EE91E00E9479068C2FCF910C94ED
:101E70005C08AF92BF92CF92DF92EF92FF920F93E6
:101E80001F93CF93DF93CDB7DEB72A970FB6F894A1
:101E9000DEBF0FBECDBF0E94510B0E94050F8823ED
:101EA00009F461C089EBA82E81E0B82E10E000E0B3
:101EB000C02E802F0E94B40AE82EF501D1905F0158
:101EC000D81609F44AC08091140281FD0E94BA0A12
:101ED00080E0FF24F394DE249D2D9F21C9F18E83A1
:101EE000CF82EF2081E009F480E088870E94B51A54
:101EF0008160782F9A8789874E815F8168858A857E
:101F00000E94D50FF801E754FE4F8081F826F08239
:101F10000E941A0C0E94331D0E945D0E9091B80120
:101F2000891791F10E945D0E8093B8012A960FB631
:101F3000F894DEBF0FBECDBFDF91CF911F910F91FF
:101F4000FF90EF90DF90CF90BF90AF900C94110F67
:101F50008F5FFF0C833009F0BFCF0F5F1F4F03303F
:101F6000110509F0A5CF8FEF89838A831B820E9418
:101F7000B51A8160782F9D838C8349815A816B814A
:101F80008D810E94D50FC4CF2A960FB6F894DEBF7C
:101F90000FBECDBFDF91CF911F910F91FF90EF90BA
:101FA000DF90CF90BF90AF900895CF93DF93CDB7E0
:101FB000DEB72B970FB6F894DEBF0FBECDBF4F83B1
:101FC000588769877A878B871E821D8285E0FE018C
:101FD0003796DE01119601900D928A95E1F74981BD
:101FE0005A816B817C818D819E812B960FB6F894EE
:101FF000DEBF0FBECDBFDF91CF910C94E915FC0180
:10200000808191810C942818CF93C82F882309F4DC
:1020100090C08238C1F40E945D0E81FD8AC089E3C0
:102020000E9456180E94BA182FEF81EE94E02150BA
:1020300080409040E1F700C0000089E30E945D18F5
:10204000CF910C94BA188338A1F40E945D0E80FDE4
:1020500070C083E50E9456180E94BA182FEF81EED7
:1020600094E0215080409040E1F700C0000083E5FB
:10207000E5CF8438A1F40E945D0E82FD5AC087E44A
:102080000E9456180E94BA182FEF81EE94E021505A
:1020900080409040E1F700C0000087E4CFCF8CEF94
:1020A0008C0F813AB8F48C2F0E942422811141C0F8
:1020B0006C2F80910001909101010E94F0198823FA
:1020C00029F08C2F0E945D180E94BA188C2F0E9454
:1020D0005618B6CF80E28C0F883048F4C77081E084
:1020E00001C0880FCA95EAF70E947E18A9CFEBE5D8
:1020F000EC0FE33040F4F0E0E657FE4F808190E0D3
:10210000CF910C94C30EE8E5EC0FE73150F4F0E00A
:10211000EE0FFF1FE45AFE4F80819181CF910C9406
:10212000D90EC03F30F08C2F0E94BF1BCF910C9472
:10213000A61CCF910895882309F452C0823871F407
:102140000E945D0E81FF4CC089E30E9456180E94D8
:10215000BA1889E30E945D180C94BA18833859F4B0
:102160000E945D0E80FF3CC083E50E9456180E94CD
:10217000BA1883E5EFCF843859F40E945D0E82FFD0
:102180002FC087E40E9456180E94BA1887E4E2CF55
:102190009CEF980F913AF0F290E2980F983050F43B
:1021A000877091E001C0990F8A95EAF7892F0E9404
:1021B0008418D2CF9BE5980F933020F490E080E014
:1021C0000C94C30E98E5980F973120F490E080E0CE
:1021D0000C94D90E803F20F00E94271C0C94A61C62
:1021E0000895CF93C82F0E940410C93349F42FEFEC
:1021F00087EE93E0215080409040E1F700C000005E
:102200008C2FCF910C949B10882321F00E947E1874
:102210000C94BA180895882321F00E9484180C9415
:10222000BA180895BF92CF92DF92EF92FF920F9368
:102230001F93CF93DF936C01D62FC72FFC0105812D
:1022400002950F70128111110E949B180E94741840
:10225000E82E882391F01123E9F08C2F807F8034C1
:1022600021F080E28D0F8830A8F082E00E940519ED
:102270000E94741891E0E82EE926BC2EB2949FE0EB
:10228000B922FBE0FB15A8F1EB2DF0E0E258F44D8C
:102290000C94202BE12CF1CF0C2F0F70C07F11F08C
:1022A0000295007F1123A9F0002359F080E28D0FE1
:1022B000883010F0D11109C0802F0E947E180E9432
:1022C000BA188D2F0E94041014C0802F0E948E18FF
:1022D000F6CF8D2F0E949B10002359F080E28D0FC6
:1022E000883010F0D1112CC0802F0E9484180E94D9
:1022F000BA182B2D2850330B2430310520F40E94BE
:102300005D0E0E945C08EE2009F48EC10E947018D8
:1023100080FD8AC1F60112820E946A180E94F51699
:10232000C6010E9435130E946A18DF91CF911F9158
:102330000F91FF90EF90DF90CF90BF900C94161705
:10234000802F0E949418D3CF2C2F2F70F22EC07F95
:10235000C03219F0F29480EFF822DD2369F0D13019
:1023600049F1112391F1002351F1F601858180FF9C
:10237000A8CF8F70858323C0112381F0011106C07F
:102380000E94A1188F290E940411B3CF0130C1F718
:102390000E94A1188F290E94A718ABCF011106C077
:1023A0000E94B0188F2D0E940B11A3CF013009F4A9
:1023B000A0CFF6CF112329F0063008F09ACF8F2D49
:1023C000E2CF053008F095CFEDCF002359F3D93394
:1023D00049F4FFEF27EE33E0F15020403040E1F7C1
:1023E00000C000008D2F0E949B1083CF8C2F8695FC
:1023F0008695837069F0813009F07BCF8D2F9C2FFB
:102400009370111102C090E080E00E94D90E71CF4C
:102410008D2F9C2F9370111102C090E080E00E94DC
:10242000C30E67CF8D2F112329F00E94BF1B0E947E
:10243000A61C5FCF0E94271CFACF8C2F837009F057
:1024400041C0111156CF4D2F429546954770440F0C
:10245000440F0D2F0F7010E030E020E0042E04C078
:10246000000F111F221F331F0A94D2F760E070E0A3
:10247000CB01D4FF0FC06FE070E080E090E004C0BB
:10248000660F771F881F991F4A95D2F76095709540
:1024900080959095C695C695C370602B712B822B45
:1024A000932BC23049F058F4C13019F00E94A7169E
:1024B00020CF0E9495161DCF0E94B9161ACF0E94F8
:1024C000931617CF8695112311F08C2F81708823D6
:1024D00009F40FCF4D2F429546954770440F440F96
:1024E0000D2F0F7010E030E020E0042E04C0000F2C
:1024F000111F221F331F0A94D2F760E070E0CB0156
:10250000D4FF0FC06FE070E080E090E004C0660F81
:10251000771F881F991F4A95D2F76095709580950F
:102520009095C695C695C370602B712B822B932B0B
:10253000C23049F058F4C13019F00E946C17D9CE5E
:102540000E945A17D6CE0E947E17D3CE0E94CF1675
:10255000D0CECF70112329F08C2F0E94F5168D2F2D
:1025600012CF8D2F0E940B118C2F0E941617C1CEF7
:10257000D23F89F160F4D03FC9F0D13F29F1112356
:1025800009F442C001119DCE8C2F8F7121C0D33F21
:1025900039F1D43FA1F7112369F1CF718C2F0E943B
:1025A000F51663E08C2F0E94F018A3CE112341F0A2
:1025B000053008F09ECE8C2F8F710E94391799CE6E
:1025C000063008F096CEF7CF8C2F8F71112369F269
:1025D0000E94F5168ECE8C2F8F711123C9F3C5CFB3
:1025E000112329F08C2F8F710E94E01682CE0E9459
:1025F000DB167FCE81E00E940519023008F479CE07
:1026000082E00E94051975CE002359F0D93309F0F4
:10261000E9CE8FEF97EEE3E081509040E040E1F7A4
:10262000DFCE8C2F8F71A1CFDF91CF911F910F91B2
:10263000FF90EF90DF90CF90BF9008950F931F937E
:10264000CF93DF93EC01688179818A810E943218EF
:102650008C010E9490170E949216B801CE01DF9162
:10266000CF911F910F910C941211CF93DF93EC0136
:102670008B819C81892B29F08881998189238F3FC7
:1026800059F4DF91CF910895CE010E941E13CE011F
:10269000DF91CF910C948707CE010E9474088111BD
:1026A000F3CF0E947418882361F38A81882349F349
:1026B00082E0DF91CF910C9405190E949B180E9433
:1026C0009E180E94BA180E944D1E0E94A61C90E0FF
:1026D00080E00E94C30E90E080E00C94D90E0E942E
:1026E00064180C945D130E948B180C946F13E92FDF
:1026F000E295EF70E250EE3070F4F0E0E657F44D02
:102700000C94202B803F19F020F4883E20F481E0C7
:102710000895843FE1F380E00895883EC0F3813F4F
:10272000D1F7F5CF93FB882780F908950E942818E8
:102730000C947713CF93DF9300D000D00F92CDB7D6
:10274000DEB70F900F900F900F900F90DF91CF9109
:102750000895CF93DF9300D000D000D0CDB7DEB77F
:1027600026960FB6F894DEBF0FBECDBFDF91CF9196
:1027700008951F93CF93DF93C091BD0116E0809120
:10278000BE018C1304C0DF91CF911F910895D0E05A
:102790001C9FF0011D9FF00D1124E154FE4F40815C
:1027A000518162817381848195810E94A913219650
:1027B000C770E5CF4091EF015091F0016091F101B8
:1027C0007091F2018091F3019091F4010C94A9139E
:1027D0001F93CF93DF938091F401807FA9F48091C0
:1027E000F101882389F08091BD01C091BE01609103
:1027F000EF017091F001A091F201B091F301D62F99
:10280000D72316E0C81304C0DF91CF911F9108951C
:1028100090E0109711F0DF3F19F401968770F2CF26
:10282000189F9001199F300D1124F901E154FE4FBA
:1028300041814713F2CF40814613EFCF42814111CE
:10284000ECCF438154814A1B5B0B483C510528F770
:102850008091F4018F7080618093F401F901EC5351
:10286000FE4F80818F70806180838FEE91E00E94A7
:102870003513DF91CF911F910C94B913AF92BF9292
:10288000CF92DF92EF92FF920F931F93CF93DF933C
:10289000CDB7DEB761970FB6F894DEBF0FBECDBFE0
:1028A0008C0185E0F801DE011D9601900D928A955C
:1028B000E1F7F80140815181E2808FEEC82E81E07E
:1028C000D82E6091F2017091F3016115710509F440
:1028D00061C19091EF012091F001892F82238F3FF8
:1028E00009F458C1A380B480F090F101F501E61B12
:1028F000F70BFF2009F4FCC08091F401382F307FE2
:10290000E83CF10508F0B2C0311179C0FE2C251366
:1029100023C0941321C0E1101FC08F708061809389
:10292000F4010E94DA13C6010E9435138091F4016C
:10293000F80185838F2D61960FB6F894DEBF0FBE28
:10294000CDBFDF91CF911F910F91FF90EF90DF905E
:10295000CF90BF90AF900895AB2829F0842F8523A6
:102960008F3F09F033C180E0F82FF170DF2E80FF38
:102970003CC08091BD012091BE0136E0821315C09C
:102980004D875E878D859E850E942818292F229568
:102990002F702230F0F0243018F59F70F1F0F8011C
:1029A0009581907FD1F4D12C1EC090E0389FF0012A
:1029B000399FF00D1124E154FE4F6181651306C06B
:1029C0006081641303C062816E110FC0019687702D
:1029D000D5CF9F7011F0882331F3805E883018F3D3
:1029E000C8010E943513FD2CA5CFEE2009F4A2CF1B
:1029F0008091F40181608093F401F12C9BCF251329
:102A000006C0941304C0F801EE2009F48DC04D8770
:102A10005E878D859E850E949613882319F1EE208E
:102A200009F18091F401803270F02091EF01309132
:102A3000F00138872F831986BB86AA868C87CE0142
:102A400007960E94351386E0F801AFEEB1E00190E1
:102A50000D928A95E1F70E94E8130E94DA13FF2491
:102A6000F39468CFC8010E943513F9CF311113C018
:102A70007A2DB98AA88A6E2D89890E949A138FEEC1
:102A800091E00E94351386E0F60111928A95E9F7EC
:102A90000E94DA13B2CF25130FC094130DC0E110BA
:102AA0000BC0F8018583C8010E94351386E0F6014A
:102AB00011928A95E9F73ECF4D875E878D859E8579
:102AC0000E949613882371F2EE2061F28091F40146
:102AD000803208F4B8CF2091EF013091F0013A83B1
:102AE00029831B82BD82AC828E83CE010196A9CF41
:102AF000E83CF10508F041C0FE2CEE2009F4B2CF0D
:102B000025132AC0941328C08091F40180FD1BC0B6
:102B1000982F907FC1F0F8018583903F31F0982F76
:102B2000907F905F8F70892B8583C8010E94351339
:102B300086E0F801AFEEB1E001900D928A95E1F7E1
:102B40000E94DA13F7CE86E0F801AFEEB1E0019013
:102B50000D928A95E1F7EECE4D875E878D859E8535
:102B60000E94961381116FCF8091F4018160809350
:102B7000F401C8010E943513DDCE7A2DB98AA88AE6
:102B80006E2D89890E949A1386E0F60111928A952A
:102B9000E9F7D6CFEE2009F465CF4D875E878D85A6
:102BA0009E850E949613F82E882309F45BCF86E059
:102BB000F801AFEEB1E001900D928A95E1F78FEE4A
:102BC00091E00E94FF0F0E94E813BACF81E08E25AA
:102BD000CBCE1F93CF93DF93CDB7DEB72C970FB635
:102BE000F894DEBF0FBECDBF4F83588769877A87C1
:102BF0008B879C87CE0107960E943E14882369F03C
:102C00008A859B85892B39F04F815885842F8523B0
:102C10008F3F09F071C016E05FC086E0FE01379675
:102C2000DE01119601900D928A95E1F78A859B85C8
:102C3000892B89F388859F8189238F3F61F32091B8
:102C4000BE0130E0C9010196877099274091BD010E
:102C50004817190671F40E9473131092BE01109266
:102C6000BD0186E0EFEEF1E0DF011D928A95E9F704
:102C7000D2CF96E0929FD001939FB00D1124A15422
:102C8000BE4FFE01319601900D929A95E1F7809327
:102C9000BE010E94B913BFCF819FC001112481548E
:102CA0009E4F0E943E148823E9F0E091BD011E9FD3
:102CB000F0011124E154FE4F408151816281738102
:102CC000848195810E94A9138091BD0190E00196B5
:102CD000877099278093BD018091BD019091BE01BD
:102CE0008913DACF2C960FB6F894DEBF0FBECDBF96
:102CF000DF91CF911F91089569857A858B859C8599
:102D00000E94A91388CF08950C9483160E948416FC
:102D1000609303027093040280930502909306026D
:102D20000C945D1308950C9486160F931F930091D5
:102D30000302109104022091050230910602602BDB
:102D4000712B822B932B1F910F910C9486160F934E
:102D50001F9300910302109104022091050230910B
:102D6000060260237123822393231F910F910C94F9
:102D700086160F931F930091030210910402209175
:102D800005023091060260277127822793271F9141
:102D90000F910C9486160C9483160C94CB160E94FB
:102DA000CD166093FF01709300028093010290930F
:102DB00002020C945D1360E070E0CB010C94CF161E
:102DC0000F931F9341E050E060E070E08A019B01A7
:102DD00004C0000F111F221F331F8A95D2F7C901AB
:102DE000B8011F910F910C94CF160F931F9341E0E0
:102DF00050E060E070E004C0440F551F661F771F6D
:102E00008A95D2F78091FF0190910002A091010272
:102E1000B09102028A019B01082B192B2A2B3B2B14
:102E2000C901B8011F910F910C94CF160F931F93F6
:102E300041E050E060E070E004C0440F551F661FA1
:102E4000771F8A95D2F7CB01BA016095709580956E
:102E500090950091FF0110910002209101023091A4
:102E6000020260237123822393231F910F910C94FC
:102E7000CF160F931F9341E050E060E070E004C074
:102E8000440F551F661F771F8A95D2F78091FF0167
:102E900090910002A0910102B09102028A019B016F
:102EA000082719272A273B27C901B8011F910F912D
:102EB0000C94CF160F931F930091FF011091000205
:102EC0002091010230910202602B712B822B932BF7
:102ED0001F910F910C94CF160F931F930091FF0138
:102EE00010910002209101023091020260237123AF
:102EF000822393231F910F910C94CF160F931F934E
:102F00000091FF0110910002209101023091020214
:102F100060277127822793271F910F910C94CF165A
:102F20000895E92FEE0F9E0F890F982F977041E0BB
:102F300001C0440F9A95EAF786958695869595E0A7
:102F4000899FF0011124EB50FE4F30E020E070E04B
:102F50005191DF011197CB01022E02C09695879502
:102F60000A94E2F7817081958527842385278C93C5
:102F70002F5F3F4F2530310559F70895E92FEE0FA8
:102F80009E0F890F982F977086958695869525E0D8
:102F9000829FF0011124EB50FE4F50E040E080E0B2
:102FA000219130E0092E02C0369527950A94E2F768
:102FB00021703327042E01C0220F0A94EAF7822BD6
:102FC0004F5F5F4F4530510559F70895BF92CF923B
:102FD000DF92EF92FF920F931F93CF93DF938C01B9
:102FE000C090FF01D0900002E0900102F090020238
:102FF0008091030290910402A0910502B091060213
:10300000C82AD92AEA2AFB2ACFE1D0E0BC2ED70170
:10301000C6010C2E04C0B695A795979587950A947E
:10302000D2F780FD0EC0219788F7B12C8B2DDF9150
:10303000CF911F910F91FF90EF90DF90CF90BF90B5
:103040000895B8018C2F0E94DA08019761F3EECF42
:10305000CF93DF93EC010E94E617BE01DF91CF9181
:103060000C94DA081F93CF93DF93EB019091BC018E
:10307000992331F0CB01DF91CF911F910C94281847
:10308000882379F0CB010E94E617182F682FCE0114
:103090000E949117BE01812FDF91CF911F910C9457
:1030A000DA08CB010E94BE17182FF4CF682F809149
:1030B0000001909101010C94261A682F8091000163
:1030C000909101010C94281A8091000190910101C6
:1030D0000C942A1A80910702859585958595089507
:1030E000809107028770089590910702977081E0A0
:1030F00009F480E0089580911302089590911302DD
:10310000892B809313020895809590911302982340
:103110009093130208951092130208959091120251
:10312000892B809312020895809590911202982322
:1031300090931202089510921202089510921102B3
:10314000089580910802089508950C94A418909110
:103150000802981721F0809308020C94A51808958E
:1031600080910802882329F01092080280E00C94D4
:10317000A5180895E0910001F091010180911302DA
:103180008083E0910001F091010180819091120211
:10319000892B8083E0910001F09101018081909161
:1031A0001102892B808390910802992381F0E0918C
:1031B0000001F09101018081892B808380910001C1
:1031C000909101010E94DE1981110E94B018809136
:1031D0000001909101010C94690E08950C94ED1872
:1031E00098E0899F90011124622B609307020E944E
:1031F000F516809107028595859585950C94EE18B6
:103200001092070280E00C94EE18909107028095CE
:10321000892380930702282F277071F4282F082E06
:10322000000C330B9217130639F08595859585951B
:103230000E9416170C94001908959093A70180938B
:10324000A6010895829590E09C01220F331F220F62
:10325000331F2C7C95958795959587958373282B9F
:1032600030E0C901880F991F8A7A35952795257511
:10327000822B089590E080E00E94422B21E08C3E5A
:103280009E4F09F020E0822F089582E090E00C9498
:103290003A2B83E090E00C943A2BCF9384E090E0BB
:1032A0000E943A2BC82F81E290E00E943A2B982F7F
:1032B0008C2FCF910895CF93C92F682F84E090E091
:1032C0000E94482B6C2F81E290E0CF910C94482B08
:1032D000AB01BC018FE090E00C945A2BAB01BC0118
:1032E00083E190E00C945A2B60E070E0CB010C94E9
:1032F0006E1960E070E0CB010E9468190C9474199B
:103300006CEE7EEF90E080E00E94662B60E082E051
:1033100090E00E94482B60E083E090E00E94482B00
:1033200010920302109204021092050210920602FB
:1033300060E084E090E00E94482B60E081E290E051
:103340000E94482B60E085E090E00E94482B60E0FE
:1033500086E090E00E94482B6FEF87E090E00E94AB
:10336000482B40E050E0BA0188E090E00E945A2BE0
:1033700060E08DE090E00E94482B40E050E0BA0110
:1033800088E190E00E945A2B60E087E190E00E9483
:10339000482B40E050E0BA018CE190E00E945A2BAB
:1033A00060E080E290E00E94482B0C9479190C9424
:1033B0008019682F8EE090E00C94482B9C012E5FC2
:1033C0003F4FAC01485F5F4F80E02417350709F499
:1033D0000895F90191919F019923B9F38F5FF5CF7A
:1033E000662349F0FC01329608962191261729F0B0
:1033F000E817F907D1F780E0089581E008959C016E
:10340000FC0132969FEF80E04191461751F09F3FBB
:1034100019F4411101C0982F8F5F8630A9F79F3FA3
:1034200009F40895290F311D97FD3A95F90162833A
:103430000895FC01329608962191261303C0DF01FE
:1034400011971C92E817F907B9F708950C94FF1922
:103450000C94191A029626E0FC0111922A95E9F7BC
:103460000895089508950C94321A0E94331A809199
:103470004402843049F11092150288E190E020E482
:103480000FB6F894A895809360000FBE209360005B
:1034900080E00E945C080E94331A83B7817F8460B9
:1034A00083BF83B7816083BF7894889583B78E7F0D
:1034B00083BF0FB6F894A8958091600088618093CF
:1034C0006000109260000FBE08950895CF930E948F
:1034D000311A0E94510B0E94651AC0E08C2F0E9485
:1034E000B40A811105C0CF5FC330C1F7CF910895F1
:1034F00081E0FCCF08950C947A1A0E9473130E9405
:103500005D0E0E945C080C947B1A1F921FB61F92DE
:1035100011248F939F93AF93BF93809115028111D4
:1035200013C080913A0290913B02A0913C02B0916D
:103530003D024196A11DB11D80933A0290933B023A
:10354000A0933C02B0933D02BF91AF919F918F91A8
:103550001F901FBE1F90189582E084BD93E095BD1B
:103560009AEF97BD80936E0008952FB7F8948091DD
:103570003A0290913B02A0913C02B0913D022FBFD4
:1035800008952FB7F89460913A0270913B028091B0
:103590003C0290913D022FBF08959C014FB7F894D3
:1035A00080913A0290913B02A0913C02B0913D0281
:1035B0004FBF821B930B089578941F921FB61F92E2
:1035C00011248F939F93AF93BF9380913A02909170
:1035D0003B02A0913C02B0913D020196A11DB11D9C
:1035E00080933A0290933B02A0933C02B0933D0239
:1035F000BF91AF919F918F911F901FBE1F90189503
:1036000081E08093E00080E28093D8001092C900AE
:103610008FE19EE40197F1F700C0000087E090EB96
:10362000DC0180934D0290934E02A0934F02B09321
:10363000500288E19CE00FB6F894A8958093600052
:103640000FBE90936000FFCF0E943A19811102C013
:103650000E94D7190E944519809314020E944D19A7
:1036600090933F0280933E020E944919682F70E0B8
:1036700090E080E00C94931680911D0280FF12C0B0
:103680006091070185E0689FB001112475956795E9
:103690007595679560387105A8F561157105A1F1FB
:1036A000862F089581FF09C06091070185E0689F1A
:1036B000B001112475956795EDCF6091070182FDEA
:1036C0000AC080911C028823D1F09091060160917C
:1036D0000701891728F085E0689FB0011124DACF2F
:1036E000869FB001112485E0869F9001879F300D51
:1036F0001124692F70E0C9010E940C2BCBCF65E02B
:1037000070E0CECF8FE7089581E0089580911D028B
:1037100080FF0CC06091030170E075956795759509
:1037200067956115710549F1862F089581FF06C0DF
:103730006091030170E075956795F3CF6091030187
:1037400082FD0BC090911C029923A1F060910201AF
:1037500080910301961738F0682F70E0603871058A
:1037600000F38FE70895899FC001112470E00E9443
:103770000C2BF4CF61E070E0D7CF81E00895803F5B
:1037800031F40E943C1B8195809321020895813F72
:1037900019F40E943C1BF8CF823F31F40E943C1B7D
:1037A0008195809320020895833F19F40E943C1B69
:1037B000F8CF893F29F40E94861B80932202089546
:1037C0008A3F21F40E94861B8195F7CF8B3F31F40D
:1037D0000E94861B81958093230208958C3F19F4E3
:1037E0000E94861BF8CF843F31F480911F028160D4
:1037F00080931F020895853F21F480911F0282600B
:10380000F7CF863F21F480911F028460F1CF873F7C
:1038100021F480911F028860EBCF883F21F48091D2
:103820001F028061E5CF8D3F31F480911D028160E0
:1038300080931D0208958E3F21F480911D028260C5
:10384000F7CF8F3FB9F780911D028460F1CF90913F
:103850002002803F41F48091210287FD10922102D5
:10386000992371F00895813F29F48091210218165F
:10387000ACF3F6CF823F81F497FFF2CF1092200293
:103880008091210290912202892B90912302892B11
:1038900049F710921C020895833F19F4191674F326
:1038A000DFCF893F39F4809122021816CCF61092AE
:1038B0002202D6CF8A3F29F48091220287FFD0CFFF
:1038C000F6CF8B3F39F48091230287FFC9CF109246
:1038D0002302C6CF8C3F29F4809123021816BCF333
:1038E000BFCF843F31F480911F028E7F80931F02EF
:1038F000B7CF853F21F480911F028D7FF7CF863FA0
:1039000021F480911F028B7FF1CF873F21F48091BA
:103910001F02877FEBCF883F21F480911F028F7EAB
:10392000E5CF8D3F31F480911D028E7F80931D0283
:1039300097CF8E3F21F480911D028D7FF7CF8F3F6F
:1039400009F08ECF80911D028B7FF0CF8091140201
:1039500083FF7EC087E292E00E94790680911F0279
:103960001F928F9382E292E09F938F930E9412079F
:1039700080E292E00E94790680912002282F082E92
:10398000000C330B3F938F938DE192E09F938F93C5
:103990000E9412078BE192E00E9479068091210239
:1039A000282F082E000C330B3F938F9388E192E071
:1039B0009F938F930E94120786E192E00E947906FE
:1039C00080912202282F082E000C330B3F938F93F7
:1039D00083E192E09F938F930E94120781E192E02E
:1039E0000E94790680912302282F082E000C330BA9
:1039F0003F938F938EE092E09F938F930E941207E4
:103A00008BE092E00E94790680911C021F928F93B6
:103A100088E092E09F938F930E94120786E092E0E5
:103A20000E94790680911D021F928F9383E092E09D
:103A30009F938F930E94120780E092E00E94790684
:103A40008DB79EB74C960FB6F8949EBF0FBE8DBF34
:103A50008EE192E00E94B50E0E94B51A90931B026F
:103A600080931A020895CF93DF9300D000D000D046
:103A7000CDB7DEB786E0EEE1F2E0DE01119601900F
:103A80000D928A95E1F78091200290912102892B75
:103A900081F080911802909119020E94CD1AAC0118
:103AA00090911C02992331F1809108018417150629
:103AB00070F18091220290912302892B91F08091E4
:103AC0001602909117020E94CD1AAC0190911C022F
:103AD000992309F478C0809104018417150608F42D
:103AE00080C026960FB6F894DEBF0FBECDBFDF9123
:103AF000CF910895209109018AE0289F9001112417
:103B000024173507B0F69F5F90931C0202C09F3FB9
:103B1000D1F71092220210922302809120021816EF
:103B200024F40E943C1B809320028091200287FF96
:103B300005C00E943C1B8195809320028091210248
:103B4000181624F40E943C1B8093210280912102CC
:103B500087FF05C00E943C1B819580932102309114
:103B600020023323A1F020912102222381F045EB92
:103B70003403C00111249923F1F09093200245EB06
:103B80002403900111243323D1F0309321020E94A9
:103B9000A61C80911A0290911B02909319028093A7
:103BA000180286E0FE013196AEE1B2E001900D927E
:103BB0008A95E1F77ECF81E080932002E0CF81E01B
:103BC00080932102E4CF209105018AE0289F900193
:103BD00011242417350708F084CF9F5F90931C02AF
:103BE00002C09F3FD1F710922002109221028091D3
:103BF0002202181624F40E94861B809322028091D0
:103C0000220287FF05C00E94861B819580932202B5
:103C100080912302181624F40E94861B80932302AD
:103C20008091230287FF05C00E94861B81958093A7
:103C30002302309122023323A1F020912302222378
:103C400081F045EB3403C00111249923F1F09093E6
:103C5000220245EB2403900111243323D1F0309349
:103C600023020E94A61C80911A0290911B0290933D
:103C700017028093160286E0FE013196AEE1B2E0B3
:103C800001900D928A95E1F72CCF81E0809322027A
:103C9000E0CF81E080932302E4CF86E0EEE1F2E022
:103CA000DF011D928A95E9F710921C0210921D0205
:103CB00008958AE494E00E9479061F9281E08F9330
:103CC0001F9285E08F938CEF93E09F938F930E94D8
:103CD00012070F900F900F900F900F900F90089574
:103CE000833009F445C028F4813061F0823049F115
:103CF0000895853009F46AC008F451C0863009F48B
:103D00007CC0089580910901482F460F5527551F03
:103D10004F3F510594F4680F6093090180910901A8
:103D20001F928F9385E393E09F938F930E941207D6
:103D30000F900F900F900F9008958FEF80930901CF
:103D4000EDCF80910801482F460F5527551F4F3F53
:103D5000510554F4680F60930801809108011F9287
:103D60008F9383E293E0E0CF8FEF80930801F5CF4C
:103D700080910701482F460F5527551F4F3F51058A
:103D800054F4680F60930701809107011F928F938D
:103D900080E193E0C9CF8FEF80930701F5CF809149
:103DA0000601482F460F5527551F4F3F510554F424
:103DB000680F60930601809106011F928F938BEF2D
:103DC00092E0B2CF8FEF80930601F5CF809103018F
:103DD000482F460F5527551F4F3F510554F4680F84
:103DE00060930301809103011F928F9382EE92E012
:103DF0009BCF8FEF80930301F5CF80910201482F75
:103E0000460F5527551F4F3F510554F4680F6093D7
:103E10000201809102011F928F9387EC92E084CF80
:103E20008FEF80930201F5CF8330C9F128F4813000
:103E300061F0823019F10895853009F452C008F418
:103E40003FC0863009F45EC008958091090168176B
:103E500090F4861B80930901809109011F928F9332
:103E600088EB92E09F938F930E9412070F900F9020
:103E70000F900F90089510920901EECF80910801E4
:103E8000681750F4861B80930801809108011F92E7
:103E90008F9386EA92E0E6CF10920801F6CF8091E8
:103EA0000701681750F4861B809307018091070172
:103EB0001F928F9383E992E0D5CF10920701F6CF3E
:103EC00080910601681750F4861B8093060180914B
:103ED00006011F928F938EE792E0C4CF10920601E5
:103EE000F6CF80910301681750F4861B809303017D
:103EF000809103011F928F9385E692E0B3CF1092D9
:103F00000301F6CF80910201681750F4861B80935D
:103F10000201809102011F928F938AE492E0A2CF66
:103F200010920201F6CFCF93C82F1F928F938FE488
:103F300095E09F938F930E94120761E070E080E00C
:103F400090E004C0660F771F881F991FCA95D2F7AB
:103F50000E9493160F900F900F900F90CF910C949A
:103F60007313CF93DF938B3109F4FEC108F0A0C126
:103F70008B3009F4BCC108F06AC1863009F4CAC1AB
:103F800048F4853009F4A2C18DEF99E00E947906CA
:103F900080E0D0C1873009F4D0C18830A9F78CE91E
:103FA0009AE00E9479068DEE99E00E9479060E94BF
:103FB00049191F928F938AEE99E09F938F930E94E5
:103FC000120788EE99E00E9479060E944519C82FD1
:103FD00085ED99E00E9479061F92CF9380ED99E0DC
:103FE0009F938F930E9412078EEC99E00E947906AE
:103FF00084EC99E00E9479068C2F81701F928F9338
:1040000081EC99E09F938F930E9412078FEB99E0C8
:104010000E94790685EB99E00E947906C1FB88270A
:1040200080F91F928F9382EB99E09F938F930E9468
:10403000120780EB99E00E94790684EA99E00E94D9
:104040007906C2FB882780F91F928F9381EA99E055
:104050009F938F930E9412078FE999E00E9479063F
:1040600086E999E00E947906C3FBCC27C0F91F922C
:10407000CF9383E999E09F938F930E94120781E980
:1040800099E00E9479060E944D19EC018DE799E0B4
:104090000E947906DF93CF9388E799E09F938F93EF
:1040A0000E94120786E799E00E9479068DE599E063
:1040B0000E9479068C2F81701F928F938AE599E078
:1040C0009F938F930E9412078DB79EB780960FB66D
:1040D000F8949EBF0FBE8DBF88E599E00E947906D7
:1040E00081E499E00E947906C1FB882780F91F923C
:1040F0008F938EE399E09F938F930E9412078CE336
:1041000099E00E9479068AE299E00E9479068D2F53
:1041100081701F928F9387E299E09F938F930E9403
:10412000120785E299E00E94790683E199E00E94F6
:104130007906D695D1701F92DF9380E199E09F9325
:104140008F930E9412078EE099E00E9479068CEF0F
:1041500098E00E947906C2FB882780F91F928F930E
:1041600089EF98E09F938F930E94120787EF98E062
:104170000E94790685EE98E00E947906C3FB8827A5
:1041800080F91F928F9382EE98E09F938F930E9405
:10419000120780EE98E00E94790686ED98E00E9472
:1041A0007906C4FB882780F91F928F9383ED98E0EE
:1041B0009F938F930E94120781ED98E00E947906E9
:1041C0008FEB98E00E947906C5FB882780F91F9243
:1041D0008F938CEB98E09F938F930E9412078AEB4A
:1041E00098E00E9479068EE998E00E947906C6FB65
:1041F000882780F91F928F938BE998E09F938F9384
:104200000E9412078DB79EB780960FB6F8949EBF96
:104210000FBE8DBF89E998E00E94790681E998E098
:104220000E947906C7FBCC27C0F91F92CF938EE876
:1042300098E09F938F930E9412078CE898E00E9469
:1042400079060F900F900F900F9081E073C080312E
:1042500009F4A2C080F48E3009F096CE9091140239
:10426000892F8B7F92FF84608093140282FF91C01C
:1042700088E29AE085C0863109F49EC0893109F050
:1042800083CE83EB96E00E9479068AE796E00E944F
:10429000790686E496E00E9479068EE196E00E9417
:1042A000790688EE95E00E9479068DEB95E021C0B5
:1042B0008A3249F190F4873211F128F48E3108F4F2
:1042C00063CE8D511DC0893209F05ECE8BE69AE037
:1042D0000E9479060E946508B8CF833468F48A3357
:1042E00008F0A1C0853359F0883309F04DCE89EE2E
:1042F00096E00E947906A9CF833409F045CE80E08C
:104300000E94931FA2CF8BE89AE00E9479060E9438
:10431000D7199BCF80911402807F8093140282EC86
:1043200096E00E94790687E89AE00E94790681E08B
:1043300080932502DF91CF91089590911402892FE7
:104340008E7F90FF81608093140280FF03C08FE511
:104350009AE0CFCF82E59AE00E947906809114021C
:10436000817F8093140271CF90911402892F8D7FE9
:1043700091FF82608093140281FF08C085E49AE077
:104380000E947906809114028160EBCF87E39AE066
:10439000B0CF88E19AE0ADCF90911402892F877F4A
:1043A00093FF88608093140283FF03C08CE09AE03F
:1043B000E7CF8FEF99E09DCF8FEA95E00E947906D5
:1043C0000E945D0E1F928F9385E995E09F938F93D6
:1043D0000E941207809114011F928F938EE795E03F
:1043E0009F938F930E941207809132021F928F93A6
:1043F0008BE695E09F938F930E9412070E94C11A4B
:104400009F938F937F936F9384E595E09F938F9312
:104410000E9412078DB79EB742960FB6F8949EBFC2
:104420000FBE8DBF12CF89536BCF80E008950C94DF
:1044300015228E518A3030F4E82FF0E0E357FE4F1A
:104440008081089580E00895CF93C82F8091250240
:104450008130C1F0882339F0823009F447C01092CE
:10446000250280E00DC00E947B188232D1F78C2F8C
:104470000E94152281111BC08C2F0E94B11F8170D8
:10448000CF9108950E947B18823289F38C2F0E946D
:10449000172281111BC0C431D9F060F4CB3071F008
:1044A000C031D1F085E495E00E94790613C081E027
:1044B00090E0E5CFC93261F0C833A1F782EC96E015
:1044C0000E9479068BE495E00E94790681E0D7CFBF
:1044D0001092250280E0D3CF0E94591E87E495E018
:1044E0000E94790682E080932502F0CFC432C8F49E
:1044F000CE3108F0BEC0CB30E1F040F4C73009F453
:10450000CCC089EE93E00E94790626C0C331C1F188
:10451000C431B9F780912402882351F1109224020A
:104520000AC0CB3409F4B7C0C8F4C93299F3C83310
:1045300041F70E94591E80912402882309F4C4C0C7
:104540001F928F9383EE93E09F938F930E941207A5
:104550000F900F900F900F9081E092CFC13509F42A
:1045600094C0C23509F48BC0CE3459F66AE08EC0CF
:1045700088EF93E00E94790681E08093250280CF46
:1045800082ED93E00E94790680EC93E00E94790628
:10459000809109011F928F938DEB93E09F938F93EE
:1045A0000E9412078BEB93E00E94790689EA93E060
:1045B0000E947906809108011F928F9386EA93E00A
:1045C0009F938F930E94120784EA93E00E947906DA
:1045D00085E993E00E947906809107011F928F93ED
:1045E00082E993E09F938F930E94120780E993E002
:1045F0000E9479068FE793E00E9479068091060178
:104600001F928F938CE793E09F938F930E941207E2
:104610008AE793E00E94790685E693E00E94790696
:10462000809103011F928F9382E693E09F938F9373
:104630000E94120780E693E00E94790689E493E0E5
:104640000E947906809102011F928F9386E493E085
:104650009F938F930E94120784E493E00E9479064F
:104660008DB79EB748960FB6F8949EBF0FBE8DBF0C
:1046700062CF8C2F0E941922809324025CCF61E0CC
:10468000809124020E94701E56CF61E08091240226
:104690000E94141F50CF6AE0F3CF8EE1809309018E
:1046A00082E3809308018AE08093070184E180938C
:1046B000060188E08093030188E2809302018BEE7B
:1046C00093E00E94790637CF80EE93E01CCF809173
:1046D000310208959FB7F894109228029FBF9091DD
:1046E0004402943009F048C02091E9002F703091C5
:1046F000EC00932F917030FD90E8922B23E02093F3
:10470000E9002091EB0020FF34C02091EE0027FF4C
:1047100030C020912602222321F02091E80025FFBD
:1047200028C01092260226E03091E80035FF14C020
:104730008093F1008091E80085FD27C08091E8001A
:1047400080FFFCCF8091E8008E778093E8009F7017
:104750009093E90080E0089530914402343049F4A8
:104760003091EB0035FD05C0215041F481E080938C
:1047700026029F709093E9008FEF0895EFE9FFE024
:104780003197F1F700C00000CFCF8FB7F89421E048
:10479000209328028FBFDBCFCF93DF9300D00F92FF
:1047A000CDB7DEB790914402943019F589837B83AD
:1047B0006A8382E08093E9008FEF9091E800815056
:1047C00095FD06C095ED9A95F1F700008111F5CFA2
:1047D0008091E80085FF0DC050E040E063E070E0AC
:1047E000CE0101960E9470268091E8008E7780931A
:1047F000E8000F900F900F90DF91CF910895CF9325
:10480000DF93EC010E945326823011F0843031F4A2
:10481000BE0184E0DF91CF910C94CC23DF91CF9146
:104820000895BC0183E00C94CC23CF93DF93EC017B
:104830000E945326823011F08430F9F482E0809394
:10484000E9008FEF9091E800815095FD06C095ED4D
:104850009A95F1F700008111F5CF8091E80085FF6E
:104860000CC050E040E066E070E0CE010E9470268F
:104870008091E8008E778093E800DF91CF910895D2
:10488000CF93DF93EC010E945326823011F08430E5
:1048900039F581E08093E9008FEF9091E800815035
:1048A00095FD06C095ED9A95F1F700008111F5CFC1
:1048B0008091E80085FF14C050E040E068E070E0BF
:1048C000CE010E9470268091E8008E778093E800E8
:1048D00088E0FE01A9E2B2E001900D928A95E1F72D
:1048E000DF91CF9108958CEC9AE00E947906809137
:1048F0004302811109C00E9400280E945D28809116
:10490000E20084608093E200089588EC9AE00E94BF
:10491000790610924302089584EC9AE00C9479068B
:1049200080EC9AE00C9479068CEB9AE00E94790670
:104930000C947D1A209127022F5F822F62E30E9440
:10494000002B992319F02093270208951092270233
:10495000809128028823F1F0809144028430C1F4D0
:104960009091E9009F702091EC00822F817020FDD2
:1049700080E8892B93E09093E9009091EB0090FF01
:1049800004C09091EE0097FD08C08F708093E900FD
:104990001092280208951092F1009091E80095FD80
:1049A000FACF9091E80090FFF0CF9091E8009E77C9
:1049B0009093E800EACF42E061EC81E00E947C271E
:1049C00042E261EC82E00E947C2742E261EC83E0FB
:1049D0000C947C2780914602833009F45FC030F448
:1049E0008130C1F1823009F49BC008958A3009F406
:1049F00087C08B3009F46DC0893009F04EC08091BA
:104A00004502813209F049C08091490290914A02E1
:104A1000029708F042C08091E800877F8093E80009
:104A20008091E80082FF35C09091F3008091F20000
:104A3000029729F48091F1008B7F813021F48091DD
:104A4000F100809331028091E8008B778093E80039
:104A50000C94B02780914502813AF9F48091E800E6
:104A6000877F8093E8008091490290914A02892BC8
:104A700061F468E089E292E070E00E94BF268091D4
:104A8000E8008B778093E800089560E090E080E094
:104A9000F3CF809144028111C3CF089580914502E4
:104AA000813AD9F78091490290914A02892BA9F75E
:104AB0008091E800877F8093E8008091E80080FF84
:104AC000FCCF809114018093F1008091E8008E77F3
:104AD000BDCF80914502813201F7809149029091CA
:104AE0004A02892BD1F68091E800877F8093E80005
:104AF0000E94B02780914702809314010C94731395
:104B000080914502813249F68091E800877F809349
:104B1000E8000E94B02780914802809332020895F5
:104B200080914502813A09F0B8CF8091E800877FF3
:104B30008093E8008091E80080FFFCCF80913202F2
:104B4000C2CF84B7877F84BF0FB6F894A8958091B1
:104B50006000886180936000109260000FBE80E862
:104B600090E00FB6F89480936100909361000FBEBF
:104B70000E94FD0E0E9400280E945D288091E200A4
:104B800084608093E2008AE693E20E941D19789483
:104B90000E94E52A0E94070F8AE091E00E94580EC9
:104BA0008BEA9AE00E94790680914402853019F0E0
:104BB0000E94390FF9CF87EA9AE00E9479060E9495
:104BC000351A80914202882379F30E94661A88235D
:104BD00059F30E945A26E8CF0C94EE25292F33274B
:104BE0002330310521F168F42130310509F449C041
:104BF0002230310509F44AC090E080E030E020E046
:104C000029C02132310581F122323105A9F7633003
:104C1000710590F7FB01EE0FFF1FE656FE4F208156
:104C2000318169567E4FFB01808190E013C0992746
:104C30008130910599F0009741F08230910589F01B
:104C40000397D1F6E0EDFAE002C0E4EFFAE08491D8
:104C500090E09F01FA01318320830895E2EEFAE0AB
:104C6000F6CFE6EDFAE0F3CF6330710528F6660F74
:104C7000771FFB01E056FE4F2081318189E090E0F3
:104C8000E9CF82E190E023E53BE0E4CF8BE590E0E3
:104C900028EF3AE0DFCF80914402843011F482E0C3
:104CA000089581E0089580913302811102C00C942F
:104CB0004B26089580E189BD82E189BD09B400FEDB
:104CC000FDCF8091D8008F7D8093D8008091E00047
:104CD00082608093E0008091E00081FDFCCF089528
:104CE000AF92BF92CF92DF92FF920F931F93CF9319
:104CF000DF936C01EB018A010E94CF27F82E81110E
:104D000023C00115110539F0F80180819181C81B7C
:104D1000D90BC80ED91EB12CA12C2097A9F08091D7
:104D2000E80085FD22C08091E8008E778093E8003E
:104D300001151105A1F0F80180819181A80EB91E1D
:104D4000B182A08285E0F82E8F2DDF91CF911F9147
:104D50000F91FF90DF90CF90BF90AF9008950E9489
:104D6000CF278823D1F2F82EEFCFF60181916F0182
:104D70008093F1002197FFEFAF1ABF0ACECFFC015D
:104D800080914B0290914C0286179707A0F0611515
:104D9000710529F49091E8009E779093E80090E0E7
:104DA0006115710551F4911108C08091E80082FFEE
:104DB00034C080E00895BC01F2CF80914402882382
:104DC000C1F18530C1F18091E80083FD30C0809150
:104DD000E80082FDEACF8091E80080FFE1CF80917A
:104DE000F3002091F200382F6115710519F0283079
:104DF000310558F091E02830310509F090E020911C
:104E0000E8002E772093E800CBCF81918093F100CA
:104E1000615071092F5F3F4FE7CF80914402882393
:104E200041F0853041F08091E80083FFBECF81E002
:104E3000089582E0089583E00895FC0180914B027B
:104E400090914C0286179707A0F06115710529F41F
:104E50008091E8008E778093E80090E061157105FD
:104E600051F4911108C08091E80082FF35C080E0C4
:104E70000895BC01F2CF809144028823C9F18530A6
:104E8000C9F18091E80083FD31C08091E80082FD86
:104E9000EACF8091E80080FFE1CF8091F30020917C
:104EA000F200382F6115710519F02830310558F0DE
:104EB00091E02830310509F090E08091E8008E778C
:104EC0008093E800CBCF84918093F10031966150BC
:104ED00071092F5F3F4FE6CF80914402882341F054
:104EE000853041F08091E80083FFBDCF81E00895D7
:104EF00082E0089583E00895982F973028F08F700E
:104F00008093E90081E008959093E900242F762FA3
:104F100050E0981731F07091EC002091ED00509125
:104F2000F00021FD02C09F5FE8CF3091EB003E7F93
:104F30003093EB003091ED003D7F3093ED003091E8
:104F4000EB0031603093EB007093EC002093ED00A8
:104F50005093F0002091EE0027FDE5CF80E008950A
:104F60008091450287FF13C08091E80082FF06C050
:104F70008091E8008B778093E80004C08091440220
:104F80008111F2CF0895809144028823D9F3809152
:104F9000E80080FFF8CF8091E8008E77ECCF209179
:104FA000E4003091E50095E6A9012091EC00822F04
:104FB000817020FF06C08091E80080FF06C080E07D
:104FC00008952091E80022FD1AC0809144028823B0
:104FD00089F0853089F08091EB0085FD0FC020912C
:104FE000E4003091E50042175307F9F29150E1F6E1
:104FF00084E0089582E0089583E0089581E00895B3
:105000000E946E280E947628E0EEF0E080818160A8
:105010008083E8EDF0E080818F77808319BCA7ED75
:10502000B0E08C918E7F8C9380818F7E80831092F4
:10503000430208950F931F93CF93DF930E946E282E
:105040000E947628C8EDD0E088818F778883888198
:105050008068888388818F7D888319BC1092440280
:1050600010924002109242021092410200EE10E0B3
:10507000F80180818B7F808388818160888342E012
:1050800060E080E00E947C27E1EEF0E080818E7F8E
:105090008083E2EEF0E0808181608083808188609F
:1050A0008083F80180818E7F8083888180618883FE
:1050B000DF91CF911F910F910895E8EDF0E080818D
:1050C0008F7E8083E7EDF0E080818160808384E0E3
:1050D00082BF81E0809343020C941A28E8EDF0E04F
:1050E00080818E7F80831092E20008951092DA0012
:1050F0001092E10008951F920F920FB60F921124A3
:105100002F933F934F935F936F937F938F939F93CF
:10511000AF93BF93EF93FF938091E10082FF0BC0A9
:105120008091E20082FF07C08091E1008B7F809335
:10513000E1000E949A248091DA0080FF19C08091DA
:10514000D80080FF15C08091DA008E7F8093DA004E
:105150008091D90080FF96C080E189BD82E189BD40
:1051600009B400FEFDCF81E0809344020E947324C5
:105170008091E10080FF19C08091E20080FF15C09E
:105180008091E2008E7F8093E2008091E200806156
:105190008093E2008091D80080628093D80019BC8F
:1051A00085E0809344020E9490248091E10084FF76
:1051B0002BC08091E20084FF27C080E189BD82E19D
:1051C00089BD89B5982F917080FFFBCF8091D80061
:1051D0008F7D8093D8008091E1008F7E8093E100E5
:1051E0008091E2008F7E8093E2008091E2008160F6
:1051F0008093E20080914002882309F449C084E052
:10520000809344020E9494248091E10083FF29C08E
:105210008091E20083FF25C08091E100877F809329
:10522000E10082E080934402109240028091E1000C
:105230008E7F8093E1008091E2008E7F8093E20078
:105240008091E20080618093E20042E060E080E0D3
:105250000E947C278091F00088608093F0000E947B
:105260008C24FF91EF91BF91AF919F918F917F918E
:105270006F915F914F913F912F910F900FBE0F90C3
:105280001F90189519BC109244020E94852470CF7B
:105290008091E30087FD93E090934402B3CF1F9287
:1052A0000F920FB60F9211242F933F934F935F935A
:1052B0006F937F938F939F93AF93BF93CF93DF931E
:1052C000EF93FF93D091E900DF708091EC00C82F3D
:1052D000C17080FDC0E81092E9008091F000877FE6
:1052E0008093F00078940E9493291092E9008091B5
:1052F000F00088608093F000CD2BCF70C093E90060
:10530000FF91EF91DF91CF91BF91AF919F918F91DD
:105310007F916F915F914F913F912F910F900FBEB1
:105320000F901F9018951F93CF93DF93CDB7DEB7E3
:10533000AA970FB6F894DEBF0FBECDBF85E492E00A
:105340002091F100FC012193CF01F2E08D349F0701
:10535000B9F70E94EA248091E80083FF1EC1809182
:105360004502909146029A3008F017C1E92FF0E00B
:10537000E856F44D0C94202B803899F0823809F0CF
:105380000CC1809149028F70873008F006C180936C
:10539000E9008091EB0085FB882780F91092E900F5
:1053A00006C08091410290914202911182609091D9
:1053B000E800977F9093E8008093F1001092F1004D
:1053C0008091E8008E77E5C0882309F4D3C082304D
:1053D00009F0E3C0809147028111D6C08091490253
:1053E0008F702FEF280F263008F0D7C08093E90088
:1053F0002091EB0020FFC8C0933031F48091EB0086
:1054000080628093EB00C0C09091EB00906190931C
:10541000EB0021E030E001C0220F8A95EAF72093EB
:10542000EA001092EA008091EB008860EACF8111D7
:10543000B4C0109147021F778091E3008078812BE0
:105440008093E3008091E800877F8093E8000E94CA
:10545000B0278091E80080FFFCCF8091E300806856
:105460008093E30082E0111183E08093440295C0B1
:105470008058823008F091C0809147029091480294
:105480008C3D23E09207A1F583E08A838AE2898339
:105490004FB7F894DE01139620E03EE051E2E32F8F
:1054A000F0E050935700E49120FF03C0E295EF70C5
:1054B0003F5FEF708E2F90E0EA30C0F0C7968D937B
:1054C0009D932F5F243159F74FBF8091E800877F6C
:1054D0008093E8006AE270E0CE0101960E94BF2648
:1054E0008091E8008B778093E80057C0C096E7CFA3
:1054F0006091490270914A02AE014F5F5F4F0E9476
:10550000EC25BC01892B09F448C09091E800977FF5
:105510009093E80089819A810E941D27E1CF80380D
:10552000E1F58091E800877F8093E8008091400258
:105530008093F10045CF811130C0909147029230A5
:1055400060F58091E800877F8093E80090934002A7
:105550000E94B02780914002882311F084E005C0AA
:105560008091E30087FDFACF81E0809344020E949E
:10557000DB2413C080914702813079F481E09330BD
:1055800009F080E0809342021092E9008091E800E7
:10559000877F8093E8000E94B0278091E80083FF16
:1055A0000AC08091E800877F8093E8008091EB003B
:1055B00080628093EB00AA960FB6F894DEBF0FBE10
:1055C000CDBFDF91CF911F910895CF938091440279
:1055D0008823A1F0C091E900CF709091EC00892F51
:1055E000817090FD80E8C82B1092E9008091E8005E
:1055F00083FD0E949329CF70C093E900CF91089555
:10560000991B79E004C0991F961708F0961B881F14
:105610007A95C9F78095089597FB072E16F40094A4
:1056200007D077FD09D00E94262B07FC05D03EF459
:10563000909581959F4F0895709561957F4F08953E
:10564000EE0FFF1F0590F491E02D0994AA1BBB1BE0
:1056500051E107C0AA1FBB1FA617B70710F0A61B72
:10566000B70B881F991F5A95A9F780959095BC0193
:10567000CD010895F999FECF92BD81BDF89A992781
:1056800080B50895A8E1B0E042E050E00C946E2BA4
:10569000262FF999FECF92BD81BDF89A019700B4EB
:1056A000021639F01FBA20BD0FB6F894FA9AF99A8B
:1056B0000FBE08950396272F0E94492B0E94482B66
:1056C000252F0E94492B242F0C94492B0196272F1C
:1056D0000E94492B0C94482BDC01CB01FC01F99969
:1056E000FECF06C0F2BDE1BDF89A319600B40D922E
:1056F00041505040B8F70895F894FFCF4C114C1129
:10570000A411A411F6111212791179111D12A91206
:10571000B812B812821382138B138B138D138B1351
:105720008B138B138213821392138B138B1392138D
:10573000BC29E429CD2AE429CD2A172A382ACD2AE2
:045740008F2A9B2AE7
:1057440009022808641E140A321E67234024152403
:105754001124FF2301E200E900EA00B500B600B716
:1057640000CD008301CC008A01920194012102231F
:105774000224022502260227022A02B300B4006F83
:10578400007000818283909466C6343500FF010066
:10579400010000FFFF0000010001FF00E200E9003A
:1057A400EA00B500B600B700CD008301CC008A0141
:1057B40092019401210223022402250226022702D7
:1057C4002A02B300B4006F007000818283010203D7
:1057D40004050607080900408122080C870B650BA5
:0657E4000A0B230B3C0B35
:00000001FF
